{"abi":[{"type":"constructor","inputs":[{"name":"clmmProgram","type":"bytes32","internalType":"bytes32"}],"stateMutability":"nonpayable"},{"type":"function","name":"CLMM_PROGRAM","inputs":[],"outputs":[{"name":"","type":"bytes32","internalType":"bytes32"}],"stateMutability":"view"},{"type":"function","name":"acceptOwnership","inputs":[],"outputs":[],"stateMutability":"nonpayable"},{"type":"function","name":"freeze","inputs":[],"outputs":[],"stateMutability":"nonpayable"},{"type":"function","name":"frozen","inputs":[],"outputs":[{"name":"","type":"bool","internalType":"bool"}],"stateMutability":"view"},{"type":"function","name":"owner","inputs":[],"outputs":[{"name":"","type":"address","internalType":"address"}],"stateMutability":"view"},{"type":"function","name":"pendingOwner","inputs":[],"outputs":[{"name":"","type":"address","internalType":"address"}],"stateMutability":"view"},{"type":"function","name":"pools","inputs":[{"name":"","type":"bytes32","internalType":"bytes32"}],"outputs":[{"name":"pool","type":"bytes32","internalType":"bytes32"},{"name":"vault0","type":"bytes32","internalType":"bytes32"},{"name":"vault1","type":"bytes32","internalType":"bytes32"},{"name":"mint0","type":"bytes32","internalType":"bytes32"},{"name":"mint1","type":"bytes32","internalType":"bytes32"}],"stateMutability":"view"},{"type":"function","name":"registerPool","inputs":[{"name":"id","type":"bytes32","internalType":"bytes32"},{"name":"a","type":"bytes32[5]","internalType":"bytes32[5]"}],"outputs":[],"stateMutability":"nonpayable"},{"type":"function","name":"swap","inputs":[{"name":"poolId","type":"bytes32","internalType":"bytes32"},{"name":"zeroForOne","type":"bool","internalType":"bool"},{"name":"amountIn","type":"uint64","internalType":"uint64"},{"name":"minOut","type":"uint64","internalType":"uint64"},{"name":"sqrtPriceLimit","type":"uint128","internalType":"uint128"},{"name":"tickArrays","type":"bytes32[]","internalType":"bytes32[]"}],"outputs":[{"name":"out","type":"uint64","internalType":"uint64"}],"stateMutability":"nonpayable"},{"type":"function","name":"transferOwnership","inputs":[{"name":"newOwner","type":"address","internalType":"address"}],"outputs":[],"stateMutability":"nonpayable"},{"type":"event","name":"OwnershipTransferStarted","inputs":[{"name":"previousOwner","type":"address","indexed":true,"internalType":"address"},{"name":"newOwner","type":"address","indexed":true,"internalType":"address"}],"anonymous":false},{"type":"event","name":"OwnershipTransferred","inputs":[{"name":"previousOwner","type":"address","indexed":true,"internalType":"address"},{"name":"newOwner","type":"address","indexed":true,"internalType":"address"}],"anonymous":false},{"type":"event","name":"PoolRegistered","inputs":[{"name":"id","type":"bytes32","indexed":true,"internalType":"bytes32"}],"anonymous":false},{"type":"event","name":"RegistryFrozen","inputs":[],"anonymous":false},{"type":"event","name":"Swapped","inputs":[{"name":"user","type":"address","indexed":true,"internalType":"address"},{"name":"poolId","type":"bytes32","indexed":true,"internalType":"bytes32"},{"name":"zeroForOne","type":"bool","indexed":false,"internalType":"bool"},{"name":"amountIn","type":"uint64","indexed":false,"internalType":"uint64"},{"name":"amountOut","type":"uint64","indexed":false,"internalType":"uint64"}],"anonymous":false},{"type":"error","name":"AlreadyRegistered","inputs":[]},{"type":"error","name":"BadRegistration","inputs":[]},{"type":"error","name":"Frozen","inputs":[]},{"type":"error","name":"NoTickArrays","inputs":[]},{"type":"error","name":"NotOwner","inputs":[]},{"type":"error","name":"NotPendingOwner","inputs":[]},{"type":"error","name":"OutBelowMinimum","inputs":[]},{"type":"error","name":"UnknownPool","inputs":[]}],"bytecode":{"object":"0x60a03461007257601f61103d38819003918201601f19168301916001600160401b038311848410176100765780849260209460405283398101031261007257516080525f80546001600160a01b03191633179055604051610fb2908161008b82396080518181816101a701526109260152f35b5f80fd5b634e487b7160e01b5f52604160045260245ffdfe6080806040526004361015610012575f80fd5b5f905f3560e01c908163054f7d9c14610d6d575080635e348ee3146103ec57806362a5af3b1461039057806379ba509714610316578063894a8020146101f15780638da5cb5b146101ca578063a5dadec71461018f578063b5217bb414610138578063e30c39781461010f5763f2fde38b1461008c575f80fd5b3461010c57602036600319011261010c576004356001600160a01b0381811691829003610108578254168033036100f657600180546001600160a01b031916831790557f38d16b8cac22d99fc7c124b9cd0de2d3fa1faef420bfe791d8c362d765e227008380a380f35b6040516330cd747160e01b8152600490fd5b8280fd5b80fd5b503461010c578060031936011261010c576001546040516001600160a01b039091168152602090f35b503461010c57602036600319011261010c57604060a0916004358152600260205220805490600181015490600281015460046003830154920154926040519485526020850152604084015260608301526080820152f35b503461010c578060031936011261010c5760206040517f00000000000000000000000000000000000000000000000000000000000000008152f35b503461010c578060031936011261010c57546040516001600160a01b039091168152602090f35b503461010c5760c036600319011261010c576004353660c4116103125781546001600160a01b031633036100f65760ff60015460a01c1661030057801580156102f4575b6102e257808252600260205260408220546102d05760405161025681610d8f565b6024358152600460208201604435815260408301606435815260608401906084358252608085019260a435845286885260026020526040882095518655516001860155516002850155516003840155519101557f43641244aeefd8de6827c26f36450aa6165c9fef65ddfa7262da93ba648464d28280a280f35b604051630ea075bf60e21b8152600490fd5b604051635384fa1960e01b8152600490fd5b50806024351415610235565b60405163a8cab3d160e01b8152600490fd5b5080fd5b503461010c578060031936011261010c576001546001600160a01b03908181163381900361037e578084549384167f8be0079c531659141344cd1fd0a4f28419497f9722a3daafe3b4186f6b6457e08680a36001600160a01b03199283161783551660015580f35b604051630614e5c760e21b8152600490fd5b503461010c578060031936011261010c5780546001600160a01b031633036100f6576001805460ff60a01b1916600160a01b1790557fb81274cedb63c3de058d6c1790db01d8b4ae3b92284a34d18fe82657d738965e8180a180f35b5034610c195760c0366003190112610c1957602435151560243503610c19576001600160401b036044351660443503610c19576001600160401b036064351660643503610c19576001600160801b036084351660843503610c19576001600160401b0360a43511610c195736602360a435011215610c19576001600160401b0360a4356004013511610c195736602460a4356004013560051b60a435010111610c195760a43560040135158015610d5d575b610d4b575f60806040516104b181610d8f565b82815282602082015282604082015282606082015201526004355f52600260205260405f2090604051916104e483610d8f565b60048154918285526001810154602086015260028101546040860152600381015460608601520154608084015215610d395760243515610d28576060820151916080810151925b600960ff60981b013b15610c1957604051631ef1128d60e11b8152336004820152602481018590525f8160448183600960ff60981b015af18015610d1d57610d05575b5060405163feb1c64760e01b8152336004820152602481019490945291929160208380604481015b0381600960ff60981b015afa928315610cfa578493610cc6575b506040805163b317d4c160e01b815260048101859052602481019190915291602083604481600860ff60981b015afa928315610cbb578593610c9a575b5060a43560040135600701600711610c865761061160a43560040135600701610e18565b9161061f6040519384610dd8565b6007600460a43501350180845261063590610e18565b865b601f1982018110610c6f57505061064e8251610ee2565b61065784610e4d565b5261066183610e4d565b50604051638854a29960e01b8152306004820152602081602481600960ff60981b015afa908115610c64578791610c30575b506106fa916020916106a3610e2f565b50604051906106b182610dbd565b81526001838201528860408201526106c886610e6e565b526106d285610e6e565b5060405163feb1c64760e01b8152336004820152602481019190915291829081906044820190565b0381600960ff60981b015afa908115610c25578691610bed575b5061077d91610724604092610ee2565b61072d85610e7e565b5261073784610e7e565b5061074186610ee2565b61074a85610e8e565b5261075484610e8e565b506107626020820151610ee2565b61076b85610e9e565b5261077584610e9e565b500151610ee2565b61078682610eae565b5261079081610eae565b50610799610e2f565b506040516107a681610dbd565b7f06ddf6e1d765a193d9cbe146ceeb79ac1cb485ed5f5b37913a8cf5857eff00a981528460208201528460408201526107de82610ebe565b526107e881610ebe565b50835b60a435600401358110610b98575060243515610b91576001905b610810604435610f0a565b9161081c606435610f0a565b926108316001600160401b0360843516610f0a565b936108496001600160401b0360843560401c16610f0a565b604051956001600160401b0360c01b1660208701526001600160401b0360c01b166028860152601085528460408101106001600160401b03604087011117610b7d57604085016040528451916020860151936001600160801b031985818097169560108110610b68575b5050600760f81b60608901525060f81b6001600160f81b03191660618701526001600160c01b0319908116606287015216606a85015216607283015260226040830190815261090190610dbd565b600860ff60981b013b15610b645790849160405191633a4065c360e11b8352606483017f00000000000000000000000000000000000000000000000000000000000000006004850152606060248501528251809152602060848501930190855b818110610b2e57505050828203600319016044840152604081015180835290845b828110610b13575050808201602090810185905284928492601f01601f191601829003018183600860ff60981b015af18015610b0857610af4575b50506040805163b317d4c160e01b815260048101939093526024830152602082604481600860ff60981b015afa918215610ae9578392610aad575b506001600160401b03809116911603906001600160401b038211610a99576001600160401b0382166001600160401b03606435168110610a8757602090604051602435151581526001600160401b036044351683820152816040820152600435907fbadfd3d5d52ab3dc9eac41b242ebd7b526b71ed26dd40e3ef9872511c0cd473960603392a3604051908152f35b6040516383bea12f60e01b8152600490fd5b634e487b7160e01b81526011600452602490fd5b6001600160401b03919250610ada829160203d602011610ae2575b610ad28183610dd8565b810190610df9565b9291506109f8565b503d610ac8565b6040513d85823e3d90fd5b610afd90610daa565b61010857825f6109bd565b6040513d84823e3d90fd5b60608282010151602085830181019190915289965001610982565b8251805186526020818101511515818801526040918201511515918701919091528a975060609095019490920191600101610961565b8480fd5b60100360031b82901b16169350845f806108b3565b634e487b7160e01b5f52604160045260245ffd5b8390610805565b610bac60248260051b60a435010135610ee2565b816007019081600711610bd95781610bd291610bcb6001959487610ece565b5284610ece565b50016107eb565b634e487b7160e01b87526011600452602487fd5b90506020813d602011610c1d575b81610c0860209383610dd8565b81010312610c19575161077d610714565b5f80fd5b3d9150610bfb565b6040513d88823e3d90fd5b90506020813d602011610c5c575b81610c4b60209383610dd8565b81010312610c1957516106fa610693565b3d9150610c3e565b6040513d89823e3d90fd5b602090610c7a610e2f565b82828801015201610637565b634e487b7160e01b85526011600452602485fd5b610cb491935060203d602011610ae257610ad28183610dd8565b915f6105ed565b6040513d87823e3d90fd5b9092506020813d602011610cf2575b81610ce260209383610dd8565b81010312610c195751915f6105b0565b3d9150610cd5565b6040513d86823e3d90fd5b6105969350610d1390610daa565b60205f935061056e565b6040513d5f823e3d90fd5b60808201519160608101519261052b565b60405163f7139e3360e01b8152600490fd5b60405163ae44efb160e01b8152600490fd5b50600360a435600401351161049e565b34610c19575f366003190112610c195760209060ff60015460a01c1615158152f35b60a081019081106001600160401b03821117610b7d57604052565b6001600160401b038111610b7d57604052565b606081019081106001600160401b03821117610b7d57604052565b90601f801991011681019081106001600160401b03821117610b7d57604052565b90816020910312610c1957516001600160401b0381168103610c195790565b6001600160401b038111610b7d5760051b60200190565b60405190610e3c82610dbd565b5f6040838281528260208201520152565b805115610e5a5760200190565b634e487b7160e01b5f52603260045260245ffd5b805160011015610e5a5760400190565b805160021015610e5a5760600190565b805160031015610e5a5760800190565b805160041015610e5a5760a00190565b805160051015610e5a5760c00190565b805160061015610e5a5760e00190565b8051821015610e5a5760209160051b010190565b610eea610e2f565b5060405190610ef882610dbd565b81525f60208201526001604082015290565b65ffffffffffff8160081c9160081b9166ff000000ff000067ff000000ff00000067ffffffffffff000065ff000000ff00861664ff000000ff85161760101b16941691161760101c16176001600160401b03906001600160401b0360c01b91808260201b169160201c161760c01b169056fea26469706673582212209590e2d83549a18bf779d3bf62dfac4a967015d5ae350cafcb8ad318a203300e64736f6c63430008180033","linkReferences":{}},"methodIdentifiers":{"CLMM_PROGRAM()":"a5dadec7","acceptOwnership()":"79ba5097","freeze()":"62a5af3b","frozen()":"054f7d9c","owner()":"8da5cb5b","pendingOwner()":"e30c3978","pools(bytes32)":"b5217bb4","registerPool(bytes32,bytes32[5])":"894a8020","swap(bytes32,bool,uint64,uint64,uint128,bytes32[])":"5e348ee3","transferOwnership(address)":"f2fde38b"},"id":0}