{"abi":[{"type":"constructor","inputs":[{"name":"dexProgram","type":"bytes32","internalType":"bytes32"}],"stateMutability":"nonpayable"},{"type":"function","name":"DEX_PROGRAM","inputs":[],"outputs":[{"name":"","type":"bytes32","internalType":"bytes32"}],"stateMutability":"view"},{"type":"function","name":"_deposit","inputs":[{"name":"user","type":"address","internalType":"address"},{"name":"poolId","type":"bytes32","internalType":"bytes32"},{"name":"lp","type":"uint64","internalType":"uint64"},{"name":"maxA","type":"uint64","internalType":"uint64"},{"name":"maxB","type":"uint64","internalType":"uint64"}],"outputs":[],"stateMutability":"nonpayable"},{"type":"function","name":"acceptOwnership","inputs":[],"outputs":[],"stateMutability":"nonpayable"},{"type":"function","name":"addLiquidity","inputs":[{"name":"poolId","type":"bytes32","internalType":"bytes32"},{"name":"lp","type":"uint64","internalType":"uint64"},{"name":"maxA","type":"uint64","internalType":"uint64"},{"name":"maxB","type":"uint64","internalType":"uint64"}],"outputs":[],"stateMutability":"nonpayable"},{"type":"function","name":"freeze","inputs":[],"outputs":[],"stateMutability":"nonpayable"},{"type":"function","name":"frozen","inputs":[],"outputs":[{"name":"","type":"bool","internalType":"bool"}],"stateMutability":"view"},{"type":"function","name":"owner","inputs":[],"outputs":[{"name":"","type":"address","internalType":"address"}],"stateMutability":"view"},{"type":"function","name":"pendingOwner","inputs":[],"outputs":[{"name":"","type":"address","internalType":"address"}],"stateMutability":"view"},{"type":"function","name":"pools","inputs":[{"name":"","type":"bytes32","internalType":"bytes32"}],"outputs":[{"name":"swapState","type":"bytes32","internalType":"bytes32"},{"name":"authority","type":"bytes32","internalType":"bytes32"},{"name":"vaultA","type":"bytes32","internalType":"bytes32"},{"name":"vaultB","type":"bytes32","internalType":"bytes32"},{"name":"poolMint","type":"bytes32","internalType":"bytes32"},{"name":"feeAccount","type":"bytes32","internalType":"bytes32"},{"name":"mintA","type":"bytes32","internalType":"bytes32"},{"name":"mintB","type":"bytes32","internalType":"bytes32"}],"stateMutability":"view"},{"type":"function","name":"registerPool","inputs":[{"name":"id","type":"bytes32","internalType":"bytes32"},{"name":"a","type":"bytes32[8]","internalType":"bytes32[8]"}],"outputs":[],"stateMutability":"nonpayable"},{"type":"function","name":"removeLiquidity","inputs":[{"name":"poolId","type":"bytes32","internalType":"bytes32"},{"name":"lp","type":"uint64","internalType":"uint64"},{"name":"minA","type":"uint64","internalType":"uint64"},{"name":"minB","type":"uint64","internalType":"uint64"}],"outputs":[],"stateMutability":"nonpayable"},{"type":"function","name":"route","inputs":[{"name":"poolA","type":"bytes32","internalType":"bytes32"},{"name":"aToB1","type":"bool","internalType":"bool"},{"name":"poolB","type":"bytes32","internalType":"bytes32"},{"name":"aToB2","type":"bool","internalType":"bool"},{"name":"amountIn","type":"uint64","internalType":"uint64"},{"name":"minOut","type":"uint64","internalType":"uint64"}],"outputs":[],"stateMutability":"nonpayable"},{"type":"function","name":"swap","inputs":[{"name":"poolId","type":"bytes32","internalType":"bytes32"},{"name":"aToB","type":"bool","internalType":"bool"},{"name":"amountIn","type":"uint64","internalType":"uint64"},{"name":"minOut","type":"uint64","internalType":"uint64"}],"outputs":[],"stateMutability":"nonpayable"},{"type":"function","name":"swapExactOut","inputs":[{"name":"poolId","type":"bytes32","internalType":"bytes32"},{"name":"aToB","type":"bool","internalType":"bool"},{"name":"amountOut","type":"uint64","internalType":"uint64"},{"name":"maxIn","type":"uint64","internalType":"uint64"}],"outputs":[],"stateMutability":"nonpayable"},{"type":"function","name":"transferOwnership","inputs":[{"name":"newOwner","type":"address","internalType":"address"}],"outputs":[],"stateMutability":"nonpayable"},{"type":"function","name":"zapIn","inputs":[{"name":"poolId","type":"bytes32","internalType":"bytes32"},{"name":"aToB","type":"bool","internalType":"bool"},{"name":"amountIn","type":"uint64","internalType":"uint64"},{"name":"minLp","type":"uint64","internalType":"uint64"},{"name":"maxOther","type":"uint64","internalType":"uint64"}],"outputs":[],"stateMutability":"nonpayable"},{"type":"event","name":"OwnershipTransferStarted","inputs":[{"name":"previousOwner","type":"address","indexed":true,"internalType":"address"},{"name":"newOwner","type":"address","indexed":true,"internalType":"address"}],"anonymous":false},{"type":"event","name":"OwnershipTransferred","inputs":[{"name":"previousOwner","type":"address","indexed":true,"internalType":"address"},{"name":"newOwner","type":"address","indexed":true,"internalType":"address"}],"anonymous":false},{"type":"event","name":"PoolRegistered","inputs":[{"name":"id","type":"bytes32","indexed":true,"internalType":"bytes32"}],"anonymous":false},{"type":"event","name":"RegistryFrozen","inputs":[],"anonymous":false},{"type":"event","name":"Swapped","inputs":[{"name":"user","type":"address","indexed":true,"internalType":"address"},{"name":"poolId","type":"bytes32","indexed":true,"internalType":"bytes32"},{"name":"aToB","type":"bool","indexed":false,"internalType":"bool"},{"name":"amountIn","type":"uint64","indexed":false,"internalType":"uint64"},{"name":"amountOut","type":"uint64","indexed":false,"internalType":"uint64"}],"anonymous":false},{"type":"error","name":"AlreadyRegistered","inputs":[]},{"type":"error","name":"BadRegistration","inputs":[]},{"type":"error","name":"Frozen","inputs":[]},{"type":"error","name":"LpBelowMinimum","inputs":[]},{"type":"error","name":"NotOwner","inputs":[]},{"type":"error","name":"NotPendingOwner","inputs":[]},{"type":"error","name":"UnknownPool","inputs":[]}],"bytecode":{"object":"0x60a03461009e57601f6200350538819003918201601f19168301916001600160401b038311848410176100a25780849260209460405283398101031261009e57516080525f80546001600160a01b0319163317905560405161344e9081620000b782396080518181816104d401528181610a270152818161104d0152818161166e01528181611ab801528181611fbe015281816122890152612d420152f35b5f80fd5b634e487b7160e01b5f52604160045260245ffdfe6080806040526004361015610012575f80fd5b5f905f3560e01c908163054f7d9c14612e59575080630883978c14612a975780630cad13bf146125c25780633a260ead14611c4a5780635f84353a146116ed57806362a5af3b14611691578063768e4bc61461165657806379ba5097146115dc578063897715be1461148a5780638da5cb5b14611463578063a716ee0314610c80578063b5217bb414610c08578063c8de0f6f1461073f578063e30c397814610716578063e46b0fb6146101545763f2fde38b146100ce575f80fd5b34610151576020366003190112610151576100e7612e7b565b81546001600160a01b03908116913383900361013f571690816bffffffffffffffffffffffff60a01b60015416176001557f38d16b8cac22d99fc7c124b9cd0de2d3fa1faef420bfe791d8c362d765e227008380a380f35b6040516330cd747160e01b8152600490fd5b80fd5b50346101515761016336612f23565b8461016d85613235565b841561070d5760e001515b600960ff60981b013b1561070957604051631ef1128d60e11b81523360048201526024810191909152818160448183600960ff60981b015af180156106fe576106e6575b50506101c784613235565b905f9084156106c95760c083015160e084015160408501516060860151929392915b60405163feb1c64760e01b81523360048201526024810182905294602086604481600960ff60981b015afa9586156105f7575f96610695575b506040805163b317d4c160e01b815260048101889052602481019190915297602089604481600860ff60981b015afa9889156105f7575f99610674575b50610268613009565b94610273825161332f565b61027c87613052565b5261028686613052565b50610294602083015161332f565b61029d87613073565b526102a786613073565b50604051638854a29960e01b8152306004820152602081602481600960ff60981b015afa80156105f7575f90610640575b6102e29150613356565b6102eb87613083565b526102f586613083565b5060405163feb1c64760e01b81523360048201526024810184905294602086604481600960ff60981b015afa9586156105f7575f96610606575b506103ec939261037a6103d39361036760a09461034e6103ff9b61337e565b6103578d613093565b526103618c613093565b5061337e565b6103708b6130a3565b526103618a6130a3565b610383896130b3565b5261038d886130b3565b506103978a61337e565b6103a0896130c3565b526103aa886130c3565b506103b8608082015161337e565b6103c1896130d3565b526103cb886130d3565b50015161337e565b6103dc866130e4565b526103e6856130e4565b5061332f565b6103f5846130f5565b526103e6836130f5565b61040882613106565b5261041281613106565b5061041b6132e8565b61042482613117565b5261042e81613117565b506104376132e8565b61044082613128565b5261044a81613128565b506104536132e8565b61045c82613139565b5261046681613139565b50610479610473876133a6565b926133a6565b604051600160f81b60208201526001600160c01b0319938416602182015292166029830152601182526104ab82612faf565b600860ff60981b013b1561060257604051633a4065c360e11b8152915f91839182916104fc91907f00000000000000000000000000000000000000000000000000000000000000006004850161315b565b038183600860ff60981b015af180156105f7576105e4575b506040805163b317d4c160e01b815260048101929092526024820152602081604481600860ff60981b015afa9182156105d857917fbadfd3d5d52ab3dc9eac41b242ebd7b526b71ed26dd40e3ef9872511c0cd473994939161057c93916105a9575b5061321c565b6040805194151585526001600160401b039283166020860152911690830152339180606081015b0390a380f35b6105cb915060203d6020116105d1575b6105c38183612fca565b8101906131fd565b5f610576565b503d6105b9565b604051903d90823e3d90fd5b6105ef919250612f65565b5f905f610514565b6040513d5f823e3d90fd5b5f80fd5b90939295506020813d602011610638575b8161062460209383612fca565b8101031261060257519491926103ec61032f565b3d9150610617565b506020813d60201161066c575b8161065a60209383612fca565b81010312610602576102e290516102d8565b3d915061064d565b61068e91995060203d6020116105d1576105c38183612fca565b975f61025f565b9095506020813d6020116106c1575b816106b160209383612fca565b810103126106025751945f610222565b3d91506106a4565b60e083015160c084015160608501516040860151929392916101e9565b6106ef90612f65565b6106fa57845f6101bc565b8480fd5b6040513d84823e3d90fd5b5080fd5b60c00151610178565b50346101515780600319360112610151576001546040516001600160a01b039091168152602090f35b50346101515761074e36612f23565b8461075885613235565b8415610bff5760e001515b600960ff60981b013b1561070957604051631ef1128d60e11b81523360048201526024810191909152818160448183600960ff60981b015af180156106fe57610beb575b50506107b284613235565b5f8415610bd15760c082015160e083015160408401516060850151915b60405163feb1c64760e01b81523360048201526024810182905293602085604481600960ff60981b015afa9485156105f7575f95610b9d575b506040805163b317d4c160e01b815260048101879052602481019190915296602088604481600860ff60981b015afa9788156105f7575f98610b7c575b5061084e613009565b94610859825161332f565b61086287613052565b5261086c86613052565b5061087a602083015161332f565b61088387613073565b5261088d86613073565b50604051638854a29960e01b8152306004820152602081602481600960ff60981b015afa80156105f7575f90610b48575b6108c89150613356565b6108d187613083565b526108db86613083565b5060405163feb1c64760e01b81523360048201526024810184905294602086604481600960ff60981b015afa9586156105f7575f96610b0e575b506103ec93926109346103d39361036760a09461034e6109519b61337e565b61093d896130b3565b52610947886130b3565b506103978961337e565b61095a82613106565b5261096481613106565b5061096d6132e8565b61097682613117565b5261098081613117565b506109896132e8565b61099282613128565b5261099c81613128565b506109a56132e8565b6109ae82613139565b526109b881613139565b506109c2866133a6565b906109cc866133a6565b604051600360f91b60208201526001600160c01b0319938416602182015292166029830152601182526109fe82612faf565b600860ff60981b013b1561060257604051633a4065c360e11b8152915f9183918291610a4f91907f00000000000000000000000000000000000000000000000000000000000000006004850161315b565b038183600860ff60981b015af180156105f757610afb575b506040805163b317d4c160e01b815260048101929092526024820152602081604481600860ff60981b015afa9182156105d857917fbadfd3d5d52ab3dc9eac41b242ebd7b526b71ed26dd40e3ef9872511c0cd473995949391610acf93916105a9575061321c565b506040805194151585526001600160401b039182166020860152911690830152339180606081016105a3565b610b06919250612f65565b5f905f610a67565b90939295506020813d602011610b40575b81610b2c60209383612fca565b8101031261060257519491926103ec610915565b3d9150610b1f565b506020813d602011610b74575b81610b6260209383612fca565b81010312610602576108c890516108be565b3d9150610b55565b610b9691985060203d6020116105d1576105c38183612fca565b965f610845565b9094506020813d602011610bc9575b81610bb960209383612fca565b810103126106025751935f610808565b3d9150610bac565b60e082015160c083015160608401516040850151916107cf565b610bf490612f65565b6106fa57845f6107a7565b60c00151610763565b5034610151576020366003190112610151576040610100916004358152600260205220805490600181015490600281015460038201546004830154906005840154926007600686015495015495604051978852602088015260408701526060860152608085015260a084015260c083015260e0820152f35b50346101515760a036600319011261015157610c9a612f14565b610ca2612e91565b610caa612ea7565b90610cb3612ebd565b610cf7610cc1600435613235565b92851561145757602060e08501515b60405163feb1c64760e01b8152336004820152602481019190915292839081906044820190565b0381600960ff60981b015afa9182156112c5578792611423575b506040805163b317d4c160e01b815260048101849052602481019190915290602082604481600860ff60981b015afa9182156114185788926113f7575b50610d5a600435613235565b905f9088156113da5760c083015160e084015160408501516060860151929390915b60405163feb1c64760e01b81523360048201526024810182905294602086604481600960ff60981b015afa9586156105f7575f966113a6575b506040805163b317d4c160e01b815260048101889052602481019190915297602089604481600860ff60981b015afa9889156105f7575f99611385575b50610dfb613009565b95610e06825161332f565b610e0f88613052565b52610e1987613052565b50610e27602083015161332f565b610e3088613073565b52610e3a87613073565b50604051638854a29960e01b8152306004820152602081602481600960ff60981b015afa80156105f7575f90611351575b610e759150613356565b610e7e88613083565b52610e8887613083565b5060405163feb1c64760e01b81523360048201526024810184905295602087604481600960ff60981b015afa80156105f75788975f9161130e575b50610f7093610f0c610f83979694610ef9610f5d95610361610ff09d610eea60a09861337e565b610ef382613093565b52613093565b610f028d6130a3565b526103618c6130a3565b610f158b6130b3565b52610f1f8a6130b3565b50610f298b61337e565b610f328b6130c3565b52610f3c8a6130c3565b50610f4a608082015161337e565b610f538b6130d3565b526103cb8a6130d3565b610f66886130e4565b526103e6876130e4565b610f79866130f5565b526103e6856130f5565b610f8c84613106565b52610f9683613106565b50610f9f6132e8565b610fa884613117565b52610fb283613117565b50610fbb6132e8565b610fc484613128565b52610fce83613128565b50610fd76132e8565b610fe084613139565b52610fea83613139565b506133a6565b9060405191600160f81b908160208501526001600160401b0360c01b16602184015260298301526011825261102482612faf565b600860ff60981b013b1561060257604051633a4065c360e11b8152915f918391829161107591907f00000000000000000000000000000000000000000000000000000000000000006004850161315b565b038183600860ff60981b015af180156105f7576112fb575b506040805163b317d4c160e01b815260048101929092526024820152602081604481600860ff60981b015afa9182156105d857906110d093926105a9575061321c565b506040805163b317d4c160e01b815260048101939093526024830152602082604481600860ff60981b015afa80156112c5576111129288916105a9575061321c565b608083015160405163b317d4c160e01b8152600481019190915260248082015292909190602084604481600860ff60981b015afa9384156112c55787946112da575b5085156112d05760600151925b6040805163b317d4c160e01b815260048101959095526024850152602084604481600860ff60981b015afa9384156112c55787946112a4575b506001600160401b03938480851692169182810292818404149015171561129057841690811561127c57046103e79081810291818304149015171561126857836103e881920416941684106112535785941561124d575b303b156106fa57829060405194630220e5e360e21b865233600487015260043560248701526044860152166064840152166084820152818160a48183305af180156106fe5761123d5750f35b61124690612f65565b6101515780f35b906111f1565b6040516001627b291d60e11b03198152600490fd5b634e487b7160e01b87526011600452602487fd5b634e487b7160e01b5f52601260045260245ffd5b634e487b7160e01b5f52601160045260245ffd5b6112be91945060203d6020116105d1576105c38183612fca565b925f61119a565b6040513d89823e3d90fd5b6040015192611161565b6112f491945060203d6020116105d1576105c38183612fca565b925f611154565b611306919250612f65565b5f905f61108d565b975050919392906020873d602011611349575b8161132e60209383612fca565b81010312610602579551879693949193919290610f70610ec3565b3d9150611321565b506020813d60201161137d575b8161136b60209383612fca565b8101031261060257610e759051610e6b565b3d915061135e565b61139f91995060203d6020116105d1576105c38183612fca565b975f610df2565b9095506020813d6020116113d2575b816113c260209383612fca565b810103126106025751945f610db5565b3d91506113b5565b60e083015160c08401516060850151604086015192939091610d7c565b61141191925060203d6020116105d1576105c38183612fca565b905f610d4e565b6040513d8a823e3d90fd5b9091506020813d60201161144f575b8161143f60209383612fca565b810103126106025751905f610d11565b3d9150611432565b602060c0850151610cd0565b5034610151578060031936011261015157546040516001600160a01b039091168152602090f35b5034610151576101203660031901126101515760043536610124116107095781546001600160a01b0316330361013f5760ff60015460a01c166115ca57801580156115be575b6115ac578082526002602052604082205461159a576040516114f181612f78565b602435815260076020820160443581526040830160643581526060840160843581526080850160a435815260a086019160c435835260c087019360e435855260e0880195610104358752898b52600260205260408b2098518955516001890155516002880155516003870155516004860155516005850155516006840155519101557f43641244aeefd8de6827c26f36450aa6165c9fef65ddfa7262da93ba648464d28280a280f35b604051630ea075bf60e21b8152600490fd5b604051635384fa1960e01b8152600490fd5b508060243514156114d0565b60405163a8cab3d160e01b8152600490fd5b50346101515780600319360112610151576001546001600160a01b039081811633819003611644578084549384167f8be0079c531659141344cd1fd0a4f28419497f9722a3daafe3b4186f6b6457e08680a36001600160a01b03199283161783551660015580f35b604051630614e5c760e21b8152600490fd5b503461015157806003193601126101515760206040517f00000000000000000000000000000000000000000000000000000000000000008152f35b503461015157806003193601126101515780546001600160a01b0316330361013f576001805460ff60a01b1916600160a01b1790557fb81274cedb63c3de058d6c1790db01d8b4ae3b92284a34d18fe82657d738965e8180a180f35b5034610151576117099061170036612ed3565b94909192613235565b9360c0850191825193600960ff60981b0194853b15611c2e57604051631ef1128d60e11b80825233600483015260248201929092528781604481838b5af1801561141857908891611c36575b505060e0880190815190873b15611c325760405190815233600482015260248101919091528781604481838b5af1801561141857908891611c1a575b50506040519461020086018681106001600160401b03821117611c0657604052600f86525f5b6101e08110611bef5750886117cd899a5161332f565b6117d688613052565b526117e087613052565b506020976117f08983015161332f565b6117f989613073565b5261180388613073565b50604051638854a29960e01b81523060048201528981602481855afa908115611be4578b91611bb0575b5061183790613356565b61184089613083565b5261184a88613083565b5060808201611859815161337e565b6118628a613093565b5261186c89613093565b505160405163feb1c64760e01b80825233600483015260248201929092529091908a81604481855afa908115611b71578c91611b7c575b506118ad9061337e565b6118b68a6130a3565b526118c0896130a3565b506118ce604084015161337e565b6118d78a6130b3565b526118e1896130b3565b506118ef606084015161337e565b6118f88a6130c3565b52611902896130c3565b50835160405183815233600482015260248101919091528a81604481855afa908115611b71578c91611b3c575b50918a9161193f6119769461337e565b6119488c6130d3565b526119528b6130d3565b50865160405192835233600484015260248301529092839190829081906044820190565b03915afa908115611b31578a91611af6575b50610473936119d7610473946119bd60a0611a5199966103cb8e6119ae6119ea9961337e565b6119b7826130e4565b526130e4565b6119c68c6130f5565b526119d08b6130f5565b505161332f565b6119e08a613106565b526119d089613106565b6119f388613117565b526119fd87613117565b50611a066132e8565b611a0f88613128565b52611a1987613128565b50611a226132e8565b611a2b88613139565b52611a3587613139565b50611a3e6132e8565b611a478861314a565b52610fea8761314a565b604051600360f81b958101959095526001600160c01b03199182166021860152918116602985015216603183015260198252611a8c82612faf565b600860ff60981b0191823b15611af157611ae092849283604051809681958294633a4065c360e11b84527f00000000000000000000000000000000000000000000000000000000000000006004850161315b565b03925af180156106fe5761123d5750f35b505050fd5b809495929a50898092503d8311611b2a575b611b128183612fca565b81010312610602579151899892939290610473611988565b503d611b08565b6040513d8c823e3d90fd5b8092939c508b8092503d8311611b6a575b611b578183612fca565b8101031261060257518b9a91908a61192f565b503d611b4d565b6040513d8e823e3d90fd5b809c508b8092503d8311611ba9575b611b958183612fca565b81010312610602576118ad8c9b51906118a3565b503d611b8b565b809b508a8092503d8311611bdd575b611bc98183612fca565b81010312610602576118378b9a519061182d565b503d611bbf565b6040513d8d823e3d90fd5b602090611bfa612feb565b82828a010152016117b7565b634e487b7160e01b5f52604160045260245ffd5b611c2390612f65565b611c2e57865f611791565b8680fd5b8880fd5b611c3f90612f65565b611c2e57865f611755565b50346101515760c036600319011261015157611c64612f14565b9060643515156064350361060257611c7a612ebd565b6001600160401b0360a4351660a4350361060257611c99600435613235565b611ca4604435613235565b9084156125b85760e00151905b600960ff60981b013b156125b457604051631ef1128d60e11b808252336004830152602482018490529190858160448183600960ff60981b015af18015612422579086916125a0575b5050606435156125965760e00151905b600960ff60981b013b156106fa576040519081523360048201526024810191909152838160448183600960ff60981b015af180156123105790849161257e575b505060405163feb1c64760e01b8152336004820152602481019190915290602082604481600960ff60981b015afa91821561241757839261254a575b506040805163b317d4c160e01b815260048101849052602481019190915290602082604481600860ff60981b015afa918215612310578492612529575b50611dcf600435613235565b905f955f1461250c5760c082015160e083015160408401516060850151929390915b60405163feb1c64760e01b81523360048201526024810182905294602086604481600960ff60981b015afa9586156105f7575f966124d8575b506040805163b317d4c160e01b815260048101889052602481019190915296602088604481600860ff60981b015afa9788156105f7575f986124b7575b50611e70613009565b95611e7b825161332f565b611e8488613052565b52611e8e87613052565b50611e9c602083015161332f565b611ea588613073565b52611eaf87613073565b50604051638854a29960e01b8152306004820152602081602481600960ff60981b015afa80156105f7575f90612483575b611eea9150613356565b611ef388613083565b52611efd87613083565b5060405163feb1c64760e01b81523360048201526024810184905295602087604481600960ff60981b015afa80156105f75788975f91612440575b50610f7093610f0c610f83979694610ef9610f5d95610361611f5f9d610eea60a09861337e565b604051600160f81b602082018190526001600160c01b0319909216602182015260298101919091526011815290611f9582612faf565b600860ff60981b013b1561060257604051633a4065c360e11b8152915f9183918291611fe691907f00000000000000000000000000000000000000000000000000000000000000006004850161315b565b038183600860ff60981b015af180156105f75761242d575b506040805163b317d4c160e01b815260048101929092526024820152602081604481600860ff60981b015afa9081156124225761204393949596916105a9575061321c565b506040805163b317d4c160e01b815260048101939093526024830152602082604481600860ff60981b015afa8015612417576120859284916105a9575061321c565b90612091604435613235565b5f92606435156123fa5760c082015160e083015160408401516060850151929390915b60405163feb1c64760e01b81523360048201526024810182905294602086604481600960ff60981b015afa9586156105f7575f966123c6575b506040805163b317d4c160e01b815260048101889052602481019190915296602088604481600860ff60981b015afa9788156105f7575f986123a5575b50612133613009565b9561213e825161332f565b61214788613052565b5261215187613052565b5061215f602083015161332f565b61216888613073565b5261217287613073565b50604051638854a29960e01b8152306004820152602081602481600960ff60981b015afa80156105f7575f90612371575b6121ad9150613356565b6121b688613083565b526121c087613083565b5060405163feb1c64760e01b81523360048201526024810184905295602087604481600960ff60981b015afa80156105f75788975f9161232e575b50610f7093610f0c610f83979694610ef9610f5d956103616122229d610eea60a09861337e565b9061222e60a4356133a6565b604051600160f81b60208201526001600160c01b03199384166021820152921660298301526011825261226082612faf565b600860ff60981b013b1561060257604051633a4065c360e11b8152915f91839182916122b191907f00000000000000000000000000000000000000000000000000000000000000006004850161315b565b038183600860ff60981b015af180156105f75761231b575b506040805163b317d4c160e01b815260048101929092526024820152602081604481600860ff60981b015afa9081156123105761230c9394916105a9575061321c565b5080f35b6040513d86823e3d90fd5b612326919450612f65565b5f925f6122c9565b975050919392906020873d602011612369575b8161234e60209383612fca565b81010312610602579551879693949193919290610f706121fb565b3d9150612341565b506020813d60201161239d575b8161238b60209383612fca565b81010312610602576121ad90516121a3565b3d915061237e565b6123bf91985060203d6020116105d1576105c38183612fca565b965f61212a565b9095506020813d6020116123f2575b816123e260209383612fca565b810103126106025751945f6120ed565b3d91506123d5565b60e082015160c083015160608401516040850151929390916120b4565b6040513d85823e3d90fd5b6040513d88823e3d90fd5b612438919650612f65565b5f945f611ffe565b975050919392906020873d60201161247b575b8161246060209383612fca565b81010312610602579551879693949193919290610f70611f38565b3d9150612453565b506020813d6020116124af575b8161249d60209383612fca565b8101031261060257611eea9051611ee0565b3d9150612490565b6124d191985060203d6020116105d1576105c38183612fca565b965f611e67565b9095506020813d602011612504575b816124f460209383612fca565b810103126106025751945f611e2a565b3d91506124e7565b60e082015160c08301516060840151604085015192939091611df1565b61254391925060203d6020116105d1576105c38183612fca565b905f611dc3565b9091506020813d602011612576575b8161256660209383612fca565b810103126106025751905f611d86565b3d9150612559565b61258790612f65565b61259257825f611d4a565b8280fd5b60c0015190611d0a565b6125a990612f65565b6106fa57845f611cfa565b8380fd5b60c0015190611cb1565b503461015157806125df6125d536612ed3565b9192939093613235565b60c081018051600960ff60981b01949093929091853b15612a9357604051631ef1128d60e11b80825233600483015260248201969096528881604481838b5af1908115612996578991612a7f575b505060e08201918251873b15612a7b5760405187815233600482015260248101919091528981604481838c5af1908115611b31578a91612a67575b50506080810195865190883b15612a635760405190815233600482015260248101919091528981604481838c5af1908115611b31578a91612a4f575b50506126ae613009565b966126b9825161332f565b6126c289613052565b526126cc88613052565b506020966126dc8884015161332f565b6126e58a613073565b526126ef89613073565b50604051638854a29960e01b81523060048201528881602481865afa908115611b71578c91612a1b575b5061272390613356565b61272c8a613083565b5261273689613083565b50835160405163feb1c64760e01b80825233600483015260248201929092529093908981604481875afa9081156129dc578d916129e7575b506127789061337e565b6127818b613093565b5261278b8a613093565b50855160405185815233600482015260248101919091528981604481875afa9081156129dc578d916129a1575b509161280360608b95936103cb8e6127d36128579a9861337e565b6127dc826130a3565b526127e6816130a3565b506127f4604084015161337e565b6127fd826130b3565b526130b3565b61280c8c6130c3565b526128168b6130c3565b50612821815161337e565b61282a8c6130d3565b526128348b6130d3565b505160405192835233600484015260248301529092839190829081906044820190565b03915afa908115612996578991612959575b5061290861294b946128a1611a8c9897956119bd612914968c61289761289161290e9961337e565b916130e4565b526119d08d6130e4565b6128aa8a613106565b526128b489613106565b506128bd6132e8565b6128c68a613117565b526128d089613117565b506128d96132e8565b6128e28a613128565b526128ec89613128565b506128f56132e8565b6128fe8a613139565b52610fea89613139565b976133a6565b916133a6565b604051600160f91b9481019485526001600160c01b0319978816600186015291871660098501529095166011830152849160190190565b03601f198101845283612fca565b868096949a50819792503d831161298f575b6129758183612fca565b810103126106025793518897939491939190612908612869565b503d61296b565b6040513d8b823e3d90fd5b80949295939d508a8092503d83116129d5575b6129be8183612fca565b810103126106025791518c9b9193906128036127b8565b503d6129b4565b6040513d8f823e3d90fd5b809d508a8092503d8311612a14575b612a008183612fca565b81010312610602576127788d9c519061276e565b503d6129f6565b809c50898092503d8311612a48575b612a348183612fca565b81010312610602576127238c9b5190612719565b503d612a2a565b612a5890612f65565b611c3257885f6126a4565b8a80fd5b612a7090612f65565b611c3257885f612668565b8980fd5b612a8890612f65565b612a9357875f61262d565b8780fd5b50346106025760a036600319011261060257612ab1612e7b565b612ab9612e91565b90612ac2612ea7565b91612acb612ebd565b9030330361013f57612ade602435613235565b90612ae7613009565b93612af2835161332f565b612afb86613052565b52612b0585613052565b50602092612b158482015161332f565b612b1e87613073565b52612b2886613073565b50604051638854a29960e01b8152306004820152600960ff60981b0191908581602481865afa80156105f7575f90612e2a575b612b659150613356565b612b6e88613083565b52612b7887613083565b5060c08101805160405163feb1c64760e01b8082526001600160a01b0387166004830152602482019290925291938783604481845afa9283156105f7575f93612df9575b50612bc9612c119361337e565b612bd28b613093565b52612bdc8a613093565b5060e0840180516040518481526001600160a01b03891660048201526024810191909152909690938990859081906044820190565b0381855afa9384156105f75789948c915f91612dc1575b5095608091612c42612c3c612cdc9961337e565b916130a3565b52612c4c8d6130a3565b508c612c64612c5e604084015161337e565b916130b3565b52612c6e8d6130b3565b508c612c86612c80606084015161337e565b916130c3565b52612c908d6130c3565b5001612c9c815161337e565b612ca58d6130d3565b52612caf8c6130d3565b50516040519384526001600160a01b03909116600484015260248301529092839190829081906044820190565b03915afa80156105f75787915f91612d88575b5061294b946128a1612d1698956119bd6129149661290e966128976128916129089861337e565b600860ff60981b0191823b1561060257612d6a925f9283604051809681958294633a4065c360e11b84527f00000000000000000000000000000000000000000000000000000000000000006004850161315b565b03925af180156105f757612d7c575080f35b612d869150612f65565b005b8097949250868092503d8311612dba575b612da38183612fca565b81010312610602579451919491869061294b612cef565b503d612d99565b96958092508791503d8311612df2575b612ddb8183612fca565b81010312610602579351929388938b906080612c28565b503d612dd1565b92508783813d8311612e23575b612e108183612fca565b8101031261060257915191612bc9612bbc565b503d612e06565b508581813d8311612e52575b612e408183612fca565b8101031261060257612b659051612b5b565b503d612e36565b34610602575f3660031901126106025760209060ff60015460a01c1615158152f35b600435906001600160a01b038216820361060257565b604435906001600160401b038216820361060257565b606435906001600160401b038216820361060257565b608435906001600160401b038216820361060257565b608090600319011261060257600435906001600160401b03602435818116810361060257916044358281168103610602579160643590811681036106025790565b60243590811515820361060257565b60809060031901126106025760043590602435801515810361060257906001600160401b03906044358281168103610602579160643590811681036106025790565b6001600160401b038111611c0657604052565b61010081019081106001600160401b03821117611c0657604052565b606081019081106001600160401b03821117611c0657604052565b604081019081106001600160401b03821117611c0657604052565b90601f801991011681019081106001600160401b03821117611c0657604052565b60405190612ff882612f94565b5f6040838281528260208201520152565b604051906101e082018281106001600160401b03821117611c0657604052600e8252815f5b6101c0811061303b575050565b602090613046612feb565b8282850101520161302e565b80511561305f5760200190565b634e487b7160e01b5f52603260045260245ffd5b80516001101561305f5760400190565b80516002101561305f5760600190565b80516003101561305f5760800190565b80516004101561305f5760a00190565b80516005101561305f5760c00190565b80516006101561305f5760e00190565b80516007101561305f576101000190565b80516008101561305f576101200190565b80516009101561305f576101400190565b8051600a101561305f576101600190565b8051600b101561305f576101800190565b8051600c101561305f576101a00190565b8051600d101561305f576101c00190565b8051600e101561305f576101e00190565b9290926060808201948252602094606086840152845180915285608084019501915f905b878383106131cd5750505050506040818403910152805190818352835f5b8381106131b957505f91508284010152601f8019910116010190565b81818401015182828701015201849061319d565b845180518952818101511515828a015260409081015115159089015296810196909301926001919091019061317f565b9081602091031261060257516001600160401b03811681036106025790565b6001600160401b03918216908216039190821161129057565b906040915f60e0845161324781612f78565b82815282602082015282868201528260608201528260808201528260a08201528260c082015201525f526002602052815f2091805161328581612f78565b6007845494858352600181015460208401526002810154848401526003810154606084015260048101546080840152600581015460a0840152600681015460c0840152015460e082015292156132d85750565b5163f7139e3360e01b8152600490fd5b6132f0612feb565b506040516132fd81612f94565b7f06ddf6e1d765a193d9cbe146ceeb79ac1cb485ed5f5b37913a8cf5857eff00a981525f60208201525f604082015290565b613337612feb565b506040519061334582612f94565b81525f60208201525f604082015290565b61335e612feb565b506040519061336c82612f94565b8152600160208201525f604082015290565b613386612feb565b506040519061339482612f94565b81525f60208201526001604082015290565b65ffffffffffff8160081c9160081b9166ff000000ff000067ff000000ff00000067ffffffffffff000065ff000000ff00861664ff000000ff85161760101b16941691161760101c16176001600160401b03906001600160401b0360c01b91808260201b169160201c161760c01b169056fea2646970667358221220b18ccb3abc7fb7ae96a62bd6b5691bf80b60ae7839d9322aa089639f9d86d2af64736f6c63430008180033","linkReferences":{}},"methodIdentifiers":{"DEX_PROGRAM()":"768e4bc6","_deposit(address,bytes32,uint64,uint64,uint64)":"0883978c","acceptOwnership()":"79ba5097","addLiquidity(bytes32,uint64,uint64,uint64)":"0cad13bf","freeze()":"62a5af3b","frozen()":"054f7d9c","owner()":"8da5cb5b","pendingOwner()":"e30c3978","pools(bytes32)":"b5217bb4","registerPool(bytes32,bytes32[8])":"897715be","removeLiquidity(bytes32,uint64,uint64,uint64)":"5f84353a","route(bytes32,bool,bytes32,bool,uint64,uint64)":"3a260ead","swap(bytes32,bool,uint64,uint64)":"e46b0fb6","swapExactOut(bytes32,bool,uint64,uint64)":"c8de0f6f","transferOwnership(address)":"f2fde38b","zapIn(bytes32,bool,uint64,uint64,uint64)":"a716ee03"},"id":1}